:020000040800F2
:1000000000000220A9F00008DD4A0008DF4A0008CD
:10001000E14A0008E34A0008E54A00080000000041
:10002000000000000000000000000000851900082A
:10003000E74A000800000000351A0008E94A0008F5
:10004000F9F00008F9F00008F9F00008F9F00008EC
:10005000F9F00008F9F00008250C0008350C00083C
:10006000F9F00008F9F00008310F0008F9F0000875
:10007000F9F00008F9F00008F9F00008F9F00008BC
:10008000F9F00008F9F00008F9F00008000000009D
:10009000000000000000000000000000F9F000086F
:1000A000F9F00008F9F00008F9F00008F9F000088C
:1000B000F9F00008F9F00008F9F00008F9F000087C
:1000C000F9F00008F9F00008F9F00008F9F000086C
:1000D000F9F00008F9F00008E1490008000000000C
:1000E000F9F00008F9F00008F9F00008000000003D
:1000F000000000000000000000000000F9F000080F
:1001000000000000F9F00008F9F00008F9F000081C
:1001100000000000000000000000000000000000DF
:10012000F9F00008F9F00008F9F00008F9F000080B
:10013000F9F00008000000000000000000000000CE
:10014000000000000000000000000000F9F00008BE
:10015000F9F00008F9F00008F9F00008F9F00008DB
:10016000F9F00008F9F000080000000000000000AD
:10017000000000000000000000000000000000007F
:1001800000000000F9F0000800000000000000007E
:08019000F9F00008F9F0000885
:1001A00010B5054C237833B9044B13B10448AFF3B1
:1001B00000800123237010BDC8050020000000004E
:1001C000684F010808B5034B1BB103490348AFF35F
:1001D000008008BD00000000CC050020684F010829
:1001E000154B002B08BF134B9D46A3F5803A002109
:1001F0008B460F461348144A121A0EF09BFD0F4B04
:10020000002B00D098470E4B002B00D098470020C1
:10021000002104000D000D48002802D00C480EF00B
:1002200051FE0EF063FD200029000EF0DFFE0EF0FF
:100230004DFD00BF000008000000000000000000AD
:1002400000000000C80500207C0A0020C5EE000860
:10025000D1EE0008426800230380137070470088C5
:10026000B0FA80F04009704702884088824234BF6B
:1002700000200120704703880BB1013B03807047C9
:1002800003883BB14068184410F8010CB0FA80F0C4
:10029000400970471846704738B502884488944230
:1002A00007D94468551C0580A154FFF7E9FF40B207
:1002B00038BD4FF0FF30FBE7082908B503D1FFF741
:1002C000DAFF002008BD0D29FBD00A2903D0BDE8C4
:1002D0000840FFF7E1BF0388002BF2D00021F6E7CA
:1002E00038B505464C1E002014F8011F21B12846E0
:1002F000FFF7E2FF0028F7DA38BD08B50246FFF73E
:10030000BFFF28B113888B428ABF50680020401875
:1003100008BD0021FFF7F1BF70B50E4E0446002561
:100320000FF058FE431C00D170BDC1B22046FFF74C
:10033000C3FF421C07D00128F2D12046FFF7E9FF96
:1003400000F05BFA02E0304604F09CFA6368258016
:100350001D70E5E7FC50010870B50848084D094ECE
:1003600004F090FA00242B1961599A6830460C3435
:1003700004F088FA902CF6D170BD00BF215101081D
:10038000884F010851510108094B93ED007AD3EDD4
:10039000017A67EE277A10B517EE900A0DF0C4FEC9
:1003A000BDE8104002460B46024804F06BBA00BF9D
:1003B000E40500208551010838B54D682B78782B6D
:1003C0000C4620D188680FF0E3FC51EC100B0EF0C6
:1003D0003DF92D4B186004222C49606810F0B5FFE0
:1003E00080B9A068284D0FF0D3FC51EC100B0EF033
:1003F0002DF9E860E0680FF0CBFC51EC100B0EF02B
:1004000025F9286138BD792B09D188680FF0C0FC27
:1004100051EC100B0EF01AF91B4B5860DBE703226E
:100420001B49284610F091FF48B9A0680FF0B0FCB6
:1004300051EC100B0EF00AF9134B9860CBE7052234
:100440001449284610F081FF10B900F0F1FFC2E70F
:1004500006221149284610F078FF58B9A0680FF01D
:100460009AFC01F059F801F05DF801460B4804F0E0
:1004700009FAB0E703220A49284610F066FF00286F
:10048000A9D101F029F8A6E7E40500202D560108BE
:100490005B5101085F510108655101086C51010869
:1004A0007A510108042801D100F0D4BE7047032816
:1004B00001D100F065BF704710B50C460F49606868
:1004C0000EF0E4FA40B90E4B18680DF02DFE02460E
:1004D0000B460C4804F0D6F90B4960680EF0D6FACA
:1004E00050B9074B58680DF01FFEBDE8104002469A
:1004F0000B46064804F0C6B910BD00BF7E51010886
:10050000E4050020805101080F56010889510108B7
:10051000012808B507D100F0CBFB01460348BDE830
:10052000084004F0AFB949680148F8E79251010862
:10053000B2510108012810B507D100F059FB01465E
:100540000A48BDE8104004F09DB94C6808492046AF
:100550000EF09CFA30B900F03FFB0648BDE81040B1
:1005600004F090B921460448EBE700BFDE510108D2
:10057000F4510108FA51010814520108012870B51C
:100580000E4610D100F094FA044600F069FA0546D0
:1005900000F05AFA03462F482A46C4F3CF11BDE8AB
:1005A000704004F06FB9042849684DD108460FF037
:1005B000EFFB51EC100B0EF021F80446B0680FF081
:1005C000E7FB51EC100B0EF019F80546F0680FF040
:1005D000DFFB51EC100B0EF011F804F5B473B3F51A
:1005E000347F82BF4FF4B47394FBF3F203FB1244E5
:1005F000002C4FF6FF7325EAE575B8BF04F5B47417
:1006000020EAE0769D424FEAC410A8BF1D4680B2A2
:100610009E42A8BF1E4600F029FAA8B200F01AFABE
:10062000B0B200F00BFA00F049FA00F0DDFB00F088
:100630004BFA00F0DFFB00F04DFA00F0E1FB33462F
:100640002A4621460448AAE70448BDE8704004F061
:1006500019B900BF48520108755201089B520108A0
:10066000012810B509D100F0C5FC20B10F48BDE844
:10067000104004F007B90E48F9E74C680D492046D0
:100680000EF004FA18B900F081FC0B48EFE70B49B3
:1006900020460EF0FBF918B900F0A0FC0848E6E788
:1006A00021460848BDE8104004F0ECB8ED520108BE
:1006B0001C5301083E5301084453010858530108D4
:1006C0005D53010871530108012810B509DC00F0E1
:1006D00003FD20B10F48BDE8104004F0D3B80E4828
:1006E000F9E74C680D4920460EF0D0F918B900F032
:1006F0009DFC0B48EFE70B4920460EF0C7F918B9EF
:1007000000F0DCFC0848E6E721460848BDE8104058
:1007100004F0B8B8B0530108D05301083E530108A3
:10072000F4530108585301080B54010822540108DE
:10073000012810B50B4613D1114883688361C36843
:10074000C36103690362143000F0A8F800680DF07B
:10075000EBFCBDE8104002460B460A4804F092B894
:1007600002280BD1084958680EF090F930B90748B3
:1007700004F088F8BDE8104000F076B810BD00BF66
:10078000E405002085510108F4510108675401086F
:100790002DE9F0470026054690460F4602F1FF3945
:1007A000B246464517DA2C4600E014460FF052FCDC
:1007B000224612F8013B184441780907F5D44BB1A1
:1007C00047F8044B254601342B783BB92B7873B995
:1007D0000136E6E73B603046BDE8F0870FF03AFCB3
:1007E00014F8013C184443781B07EBD5EEE7B145FC
:1007F000C4BF85F800A00135EAE72DE9F0470646B9
:100800008CB028B9154804F03DF80CB0BDE8F0876D
:100810000378002BF9D00A2201A9FFF7B9FF104D88
:10082000DFF840A0804600244FF00C0909FB04F7D4
:10083000019879590EF02AF928B93D4401A96B684D
:1008400040469847E1E70B2C03D13146504604F06F
:1008500019F801340C2CE9D1D7E700BF7354010813
:10086000884F01089F540108034B00221A605A6008
:100870009A60DA60704700BF04060020044B0268EB
:100880001A6042685A6082689A60C268DA6070478B
:10089000040600200048704704060020344B9FEDFA
:1008A000357AD3ED006ADFED347A344AB0EE476A28
:1008B00006EEA76AF0B5F0EE467ADFED316A93ED09
:1008C000016A46EE267A85B06C46D3ED026A93ED56
:1008D000036A46EE877A002102F13006DFED296ACD
:1008E00046EE267ADFED286AC3ED047A90ED006AC1
:1008F00046EE267A90ED016AD0ED026A46EE077A5E
:1009000046EE877AC3ED047AD0ED005A1848DFED41
:10091000197A06EB011500F11007B0EC017AB5EC7D
:10092000015AB84245EE077AF7D1C4ED007A92ED4C
:10093000007AF4EC017A45EE877A0131042992EDD0
:10094000017A46EE077A02F10C0212ED017A46EEC8
:10095000877A44ED017AD9D1009A1A60019A5A60D7
:10096000029A9A600948039ADA6005B0F0BD00BFA8
:100970000406002000000000840D0F3E18500108FE
:10098000FDF6ED3FAEB61D4136AB46C01406002065
:10099000234B70B59A8818885E884FF4F051B2FBEB
:1009A000F1F1CDB215F0010F1BBF0131C1EB011107
:1009B000A1EB0111C2EB412208BF02EB41224643E9
:1009C000C6EB004692B2C2F5F051340C4243360CED
:1009D00006FB01224FF4F05192FBF1F292B2052D89
:1009E00019D8DFE805F003070A0E1215D8801A811E
:1009F0005C8170BDDA801881FAE7DC8018815A8149
:100A0000F7E7DC801A815881F3E7DA801C81FAE786
:100A1000D8801C81F3E70022DA801A81EFE700BF5B
:100A200018060020044B47F6FF721A804FF6FF723B
:100A30005A8000229A80ABE718060020014B1880EC
:100A4000A6E700BF18060020014B1888704700BFBA
:100A500018060020014B58809AE700BF18060020B6
:100A6000014B5888704700BF180600204FF43443EC
:100A7000B0FBF3F202FB1300014B988088E700BF44
:100A800018060020094A938800280344104605DA16
:100A9000002B03DA03F53443938079E74FF43441B4
:100AA00093FBF1F201FB12338380F6E71806002076
:100AB000014B9888704700BF18060020014BD8886A
:100AC000704700BF18060020014B1889704700BF0F
:100AD00018060020014B5889704700BF18060020F7
:100AE00008B506200BF044FD0720BDE808400BF0D8
:100AF0003FBD08B506200BF047FD0720BDE80840C4
:100B00000BF042BD30B5184C00232360237987B029
:100B10003BBB164A00930321CDE9011201250222B5
:100B2000CDE90352124B13481A6B42F004021A63C8
:100B30001B6B03F00403009301A9009B05F0FEF872
:100B40000F222F2106200BF0DFFC0F222F21072080
:100B50000BF0DAFC06200BF00BFD07200BF008FD74
:100B6000257107B030BD00BF240600200000311001
:100B7000003802400008024010B50121084805F085
:100B800029FA02210446064805F024FA054B1A68A2
:100B900084420CBF013202F1FF321A6010BD00BF67
:100BA000000802402406002010B50121084805F085
:100BB00011FA02210446064805F00CFA054B1A68A2
:100BC00084420CBF02F1FF3201321A6010BD00BF37
:100BD000000802402406002010B50446FFF789FFF4
:100BE000024B1C60BDE810407AE700BF24060020DD
:100BF00010B5FFF77EFF034B1C68FFF771FF20461F
:100C000010BD00BF2406002010B5FFF772FF044B93
:100C10001C6800221A60FFF763FF204610BD00BF6A
:100C20002406002008B5FFF7A7FF0120BDE8084013
:100C300005F0F5B908B5FFF7B7FF0220BDE8084099
:100C400005F0EDB9F8B5104F3B78DBB90F4C104A01
:100C5000104DA360C4E900234FF400620126E26056
:100C600020460722C5E90036C5E90223C4E9066625
:100C700004F073F82946204604F044FC204604F0B2
:100C80002CF93E70F8BD00BF290600206009002045
:100C900000200140A809002008B5034804F003F92A
:100CA000024B00221A7008BD6009002029060020AE
:100CB00038B5084C204604F010F90121204604F014
:100CC0008BF9204604F043FB0546204604F066F904
:100CD000A8B238BD6009002000B589B0114B124898
:100CE00000220192596C41F480715964596C01F4ED
:100CF0008071019101990292196B41F00101196310
:100D00001B6B059203F001030293029B0121032355
:100D1000CDE90313022303A9069305F00FF809B0E8
:100D20005DF804FB00380240000002402DE9F0416C
:100D30001D4F1E4C3D7885BB1D4B1E4EA5604FF0D0
:100D40000108C4E900384FF6FF73C4E90335602396
:100D5000C6E9003520460223B360356109F0C4FCC2
:100D60002A463146204609F071FE082231462046C7
:100D700009F06CFE0C223146204609F067FE294638
:100D8000204609F063FF0821204609F05FFF0C218F
:100D9000204609F05BFF87F80080236800225A6331
:100DA000DA631A64BDE8F0812A060020B809002041
:100DB00000040040F4090020024B1B68586B80B20D
:100DC000704700BFB8090020024B1B68D86B80B287
:100DD000704700BFB8090020024B1B68186C80B236
:100DE000704700BFB8090020014B1B68586370476B
:100DF000B8090020014B1B68D8637047B809002070
:100E0000014B1B6818647047B80900207FB5144D6A
:100E1000144E00244FF0FF32022168469CB903F0C3
:100E2000F5F81E2003F049F81021284605F0D2F805
:100E3000012806BF307004460024002202216846C3
:100E400003F0E4F8E6E703F0E1F8322003F035F8C8
:100E50001021284605F0BEF8041C18BF0124ECE759
:100E6000000802402B06002070B51A4C667800235B
:100E70008CB023705EBB184B01961022CDE9022383
:100E80000223CDE90433154B15481A6B154D42F07A
:100E900004021A631B6B03F00403019302A9019B74
:100EA00004F04CFF0F2211460A200BF02DFB0A2004
:100EB0000BF05EFB012363700FCD07AC0FC42B68F2
:100EC0002360314607A802F0B3FF074B18600CB04F
:100ED00070BD00BF2B06002000003110003802401A
:100EE0000008024088500108100A0020014B00222F
:100EF0001A7070472B060020014B1878704700BF0E
:100F00002B060020014B01221A7070472B0600208F
:100F1000024B002218781A70704700BF2B06002081
:100F2000024B0221186803F047B800BF100A0020E6
:100F300008B5FFF7F5FF1020BDE8084005F06FB8D1
:100F400008B5FFF7B5FEFFF779FDFFF75DFEC0EBD3
:100F50000010400100B2FFF795FDFFF7D9FF28B15F
:100F6000FFF77EFDC04380B2FFF774FDFFF7A6FDDB
:100F7000FFF73AFFFFF7A8FDFFF73CFFFFF7AAFDD9
:100F8000FFF73EFF642002F098FFDAE710B5054C4A
:100F9000217829B9044802F04BFF012360602370D7
:100FA00010BD00BF300600209C50010838B50A4C27
:100FB000257A65B9FFF7BAFEFFF734FDFFF754FF56
:100FC000FFF7A0FDFFF73EFE012325702372BDE869
:100FD0003840FFF7DBBF00BF3006002010B5044CDF
:100FE000237823B1606802F03DFF0023237010BD19
:100FF00030060020014B1878704700BF30060020F3
:10100000094A1368B3F5FA7F08D1002111711079EC
:10101000916838B1053313604B637047002BF6D1EC
:101020000121F3E7053BF6E73C06002010B5064C2E
:1010300094F8443033B90A21A06C02F057FF012321
:1010400084F8443010BD00BF3C06002073B5194C35
:1010500094F84C504DBB01264FF08043C4E9023652
:101060004FF4FA73C4E9053504F108006023C4E9BC
:1010700014352561A565256609F036FB04F150019C
:101080002A46A1F1480009F0E1FC294604F10800D4
:1010900009F0DCFD02A8084B40F8043D2A46314621
:1010A00002F013FF84F84C60A064FFF7BFFF02B0AA
:1010B00070BD00BF3C0600200110000810B5054CB3
:1010C00094F844302BB1A06C02F03AFF002384F86E
:1010D000443010BD3C060020014B93F8440070479B
:1010E0003C06002000B50368274A93428BB025D107
:1010F000264B002101911A6C42F002021A641A6C0C
:1011000002F002020192019A02911A6B42F004026B
:101110001A631B6B03F004030293029B0122022358
:101120004FF4A070CDE90723CDE9050318480993D2
:1011300005A904F003FE0BB05DF804FBB3F1804F8A
:10114000F9D103F50E3300220392196C114841F0D6
:1011500001011964196C01F00101039103990492D2
:10116000196B41F0010119631B6B03F00103049338
:101170002021049B0223CDE905130123CDE9073289
:10118000099305A9D5E700BF0004004000380240DC
:101190000008024000000240D0B52B4C2DED028B20
:1011A00094ED008A78EE087A82B017EE900A0CF07F
:1011B000BBFF23A3D3E900230DF00EF806466068B9
:1011C0000F460CF0B1FF02460B46304639460DF093
:1011D00003F80DF03BFA00EE100A0DF08FFF18EE49
:1011E000100AF0EE408A0CF09FFFD4ED027A68EE10
:1011F000A77A064617EE900A0F460CF095FF3B467D
:10120000CDE900013246114803F03CFBD4ED007AF1
:101210009FED0F7AE36877EE877A013BC4ED007AA1
:10122000E3603BB9206902B0BDEC028BBDE8D04061
:1012300002F086BE02B0BDEC028BD0BDAFF30080E1
:101240007A008BFCFA210940A80600207D5601088F
:101250000AD7233C042837B50D4606D00A6817483C
:10126000114603F00FFB03B030BD4868144C0EF07C
:1012700092FDE060A8680EF08BFD51EC100B0DF0B4
:10128000E5F9A060E8680EF083FD51EC100B0DF05D
:10129000DDF9002360600B48236003F0F3FA236953
:1012A0003BB902A8084A40F8042D012102F00DFEC6
:1012B00020610A21206902F019FED4E78456010852
:1012C000A8060020D056010899110008F7B5254D51
:1012D0002B782C4653B1012B34D0234803F0D2FA9B
:1012E000A86803B0BDE8F04002F02ABE68680CF0C0
:1012F0001BFF0F460646FFF7DBFC07EE900A9FED4B
:101300001B7AF8EE677A67EE877A9FED197A67EEB7
:10131000877A17EE900A0CF007FF3246CDE90001FC
:101320003B46144803F0AEFAD4ED017A9FED127AF1
:10133000E36877EE877A013BC4ED017AE3607BB91D
:10134000A068CEE768680CF0EFFE06460F46FFF790
:101350004FFC324600903B46084803F093FAE3E71F
:1013600003B0F0BDBC060020F556010833335340EE
:1013700000008039E25601080AD7233CEB560108E9
:10138000032873B50D4606D00A682048114603F0BD
:1013900079FA02B070BD1E4CA3683BB902A81D4A81
:1013A00040F8042D012102F090FDA0600A21A06800
:1013B00002F09CFDA8680EF0EEFC002804DA296813
:1013C000154803F05FFAE4E76E68E0600023134914
:1013D000636030460DF05AFB30B92070FFF732FCE5
:1013E0000F4803F04FFAD4E70E4930460DF04EFB9C
:1013F00028B901232370FFF785FB0B48F1E72B6821
:101400000A483246194603F03DFAC2E7055701087B
:10141000BC060020CD12000843570108D65401082D
:101420006D570108FF5401088B570108A3570108A5
:10143000074B084A1968136892F83C204808D8639B
:101440000AB959637047012A04BF00225A637047E2
:1014500004000020CC06002073B51B4A1B4C42F24E
:101460001073C4E900231A4B1B680025C4E9033537
:1014700004F1400660232046C4E91035A560A56448
:10148000256509F031F931460822204609F0DEFAD7
:101490002A463146204609F0D9FA0821204609F0AB
:1014A000D5FB2946204609F0D1FB02A8094B40F89C
:1014B000043D2A46012102F008FD0A21E06502F000
:1014C00015FD02B070BD00BF00040040CC06002036
:1014D0000400002031140008054B064893F83C1026
:1014E000B1FA81F1490983F83C1003F0CBB900BF90
:1014F000CC060020DF57010810B5064C94F8603088
:1015000033B90A21E06D02F0F1FC012384F8603068
:1015100010BD00BFCC060020014B1860FFF79CBF38
:1015200004000020014B1868704700BF0400002031
:101530007047024B93F86000704700BFCC06002054
:1015400010B51C2002F04CFC044620B1002340F8EA
:10155000043B00F091F9204610BD2DE9F047089FAB
:101560000C4690469946064640B94FF0500383F327
:101570001188BFF36F8FBFF34F8FFEE711F07F4AE3
:1015800008D04FF0500383F31188BFF36F8FBFF380
:101590004F8FFEE741B94FF0500383F31188BFF33B
:1015A0006F8FBFF34F8FFEE701F022FF48B947B1BD
:1015B0004FF0500383F31188BFF36F8FBFF34F8F4A
:1015C000FEE701F02BFB356804EA0503B9F1000FD3
:1015D00015D1B3B9002F3DD0B8F1000F0CBF0021D9
:1015E0004FF08071B9F1000F01D041F080613A46AF
:1015F0002143301D01F02CFDBA46002507E09C4236
:10160000E8D1B8F1000F02D025EA0403336001F0FD
:10161000A9FBBAF1000F1AD038B9144B4FF0805221
:101620001A60BFF34F8FBFF36F8F01F085FF830107
:1016300005460AD400F0C8F9356804EA0503B9F193
:10164000000F09D153B900F0E1F925F07F45284694
:10165000BDE8F087BA46DAE79C42F4D1B8F1000F52
:10166000F1D025EA04043460EDE700BF04ED00E0AA
:1016700070B50C46054640B94FF0500383F311880E
:10168000BFF36F8FBFF34F8FFEE711F07F4F08D08E
:101690004FF0500383F31188BFF36F8FBFF34F8F69
:1016A000FEE700F091F92E6826EA04042C6000F0B1
:1016B000ADF9304670BDEFF311834FF0500282F365
:1016C0001188BFF36F8FBFF34F8F83F311880068CA
:1016D00070472DE9F0410F46044640B94FF05003E2
:1016E00083F31188BFF36F8FBFF34F8FFEE711F0C5
:1016F0007F4508D04FF0500383F31188BFF36F8FFD
:10170000BFF34F8FFEE700F10C0601F087FA236864
:1017100020693B4323608642216807D121EA050105
:10172000216001F01FFB2068BDE8F081D0E90028AE
:1017300022F07F4312F0806F03EA010702D11FB944
:101740004046E8E7BB42FBD1D20141F0007148BFFF
:101750001D4301F0FDFCF3E712F07F4F2DE9F0414E
:101760000646884615461F4608D04FF0500383F3BF
:101770001188BFF36F8FBFF34F8FFEE742B94FF071
:10178000500383F31188BFF36F8FBFF34F8FFEE7D2
:1017900001F02EFE48B947B14FF0500383F3118892
:1017A000BFF36F8FBFF34F8FFEE701F037FA346856
:1017B0004146304644EA0804FFF78BFF35EA04034C
:1017C00025D1336823EA05033360002701F0CAFA04
:1017D000D7B138B9134B4FF080521A60BFF34F8F17
:1017E000BFF36F8F01F0A8FE830104460AD400F016
:1017F000EBF8346835EA040304BF24EA05053560D4
:1018000000F004F924F07F442046BDE8F0813FB1A8
:101810003A4645F0A061301D01F01AFC0024D5E7DE
:101820003468D3E704ED00E038B5044601F0F6F97A
:1018300004F10C05636833B9204602F0D3FABDE821
:10184000384001F08FBA2069A84208D14FF0500308
:1018500083F31188BFF36F8FBFF34F8FFEE74FF015
:10186000007101F075FCE5E7FFF733BFFFF700BF3C
:1018700000B18069704700BF00F108034FF0FF32EC
:101880004360C0E902230361002303607047002323
:101890000361704743684B609A688A609A68516038
:1018A0009960036808610133036070470A68531C3C
:1018B00030B50AD103695A684A6091608B605960FB
:1018C000036808610133036030BD00F108035C6800
:1018D00025689542EFD82346F9E7D0E9011203695C
:1018E0008A60826851605968814208BF5A6000224C
:1018F000026118680138186070470000000000009D
:101900000A4B1B68013308D04FF0500383F3118852
:10191000BFF36F8FBFF34F8FFEE74FF0500383F39A
:101920001188BFF36F8FBFF34F8FFEE708000020D1
:10193000BB480068006880F3088862B661B6BFF3F0
:101940004F8FBFF36F8F00DF00BFDFF8D802016851
:1019500041F47001016070474FF0807340F8043C1F
:10196000074B40F80C3C21F001016FF0020340F8F6
:10197000081C40F8202C40F8243C4438704700BF35
:1019800001190008064B19680868B0E8F04F80F3A9
:101990000988BFF36F8F4FF0000080F31188704704
:1019A00044070020074B1B68B3F57A7F08D04FF03F
:1019B000500383F31188BFF36F8FBFF34F8FFEE7A0
:1019C000704700BF080000204FF0500383F31188D8
:1019D000BFF36F8FBFF34F8F0A4A13680133012B98
:1019E00013600DD1084B1B6813F0FF0F08D04FF0A8
:1019F000500383F31188BFF36F8FBFF34F8FFEE760
:101A0000704700BF0800002004ED00E0084A13689A
:101A100043B94FF0500383F31188BFF36F8FBFF3C7
:101A20004F8FFEE7013B13600BB983F311887047BA
:101A300008000020EFF30980BFF36F8F144B1A6882
:101A40001EF0100F08BF20ED108A20E9F04F106043
:101A50004DF8043D4FF0500080F31188BFF34F8FD5
:101A6000BFF36F8F01F04AFA4FF0000080F3118846
:101A700008BC19680868B0E8F04F1EF0100F08BFE6
:101A8000B0EC108A80F30988BFF36F8F704700BFF6
:101A90004407002008B54FF0500383F31188BFF3CB
:101AA0006F8FBFF34F8F01F0E9F818B1034B4FF080
:101AB00080521A60002383F3118808BD04ED00E012
:101AC000064B4FF47A721B68B3FBF2F3044A013BF6
:101AD0001360044B07221A60704700BF14000020F7
:101AE00014E000E010E000E0304B314A13B5196813
:101AF000914208D14FF0500383F31188BFF36F8FE9
:101B0000BFF34F8FFEE71A682A4B9A4208D14FF075
:101B1000500383F31188BFF36F8FBFF34F8FFEE73E
:101B2000254B1A78D2B20192FF221A701B78DBB2D1
:101B30008DF803309DF80320204B02F050021A70FC
:101B400007225A6000219DF80300000602F1FF34CD
:101B500023D401B15A605A68120202F4E0625A605A
:101B6000019B154ADBB21370154B1A6842F47002E0
:101B70001A601A6842F070421A60FFF7A1FF114B19
:101B800000221A60FFF7E1FE0F4A136843F040435A
:101B90001360FFF7CDFEFFF7B3FE9DF80320520060
:101BA000D2B28DF8032001212246CCE700ED00E0FF
:101BB00071C20F4170C20F4100E400E03007002005
:101BC00020ED00E00800002034EF00E0EFF3058393
:101BD0000F2B104A0DD910495B5C1178994208D936
:101BE0004FF0500383F31188BFF36F8FBFF34F8F14
:101BF000FEE70A4B52681B6803F4E063934208D97E
:101C00004FF0500383F31188BFF36F8FBFF34F8FF3
:101C1000FEE7704730070020F0E300E00CED00E045
:101C200008ED00E088ED00E070B51546026C866BAB
:101C3000044642B905689DB9406801F02FFC656013
:101C40000136A66370BD6DB980680EF04DFAA368C9
:101C5000226C13446268A360934201D32368A3609B
:101C60000020EDE7C0680EF03FFA236CE2682168BF
:101C70005B421A448A42E2603EBF62689B18E3609E
:101C8000022DEDD10EB1013EEAE73046D8E703461A
:101C900010B41A6C084662B1D9685C681144A1425C
:101CA000D96024BF1968D960D9685DF8044B0EF07B
:101CB0001BBA5DF8044B704770B50446FFF784FE0D
:101CC00094F8455004F124066DB2002D14DCFF2376
:101CD00084F84530FFF79AFEFFF776FE94F84450FB
:101CE00004F110066DB2002D12DCFF2384F844309D
:101CF000BDE87040FFF78ABE636A002BE7D030462C
:101D000001F0EEF908B101F0A7FA013D6DB2DCE790
:101D10002369002BE9D0304601F0E2F908B101F067
:101D20009BFA013D6DB2DEE738B50D46044640B979
:101D30004FF0500383F31188BFF36F8FBFF34F8FC2
:101D4000FEE7FFF741FED4E90F302268A26043436B
:101D5000D1181B1A13446160E3600021FF23A163C3
:101D600084F8443084F8453095B9236963B104F1AF
:101D7000100001F0B5F938B10A4B4FF080521A60EB
:101D8000BFF34F8FBFF36F8FFFF740FE012038BDC9
:101D900004F11000FFF770FD04F12400FFF76CFD63
:101DA000F2E700BF04ED00E0F8B50D461746064621
:101DB00040B94FF0500383F31188BFF36F8FBFF327
:101DC0004F8FFEE74843503002F00AF8044648B10E
:101DD00055B92060C4E90F6501212046FFF7A4FF33
:101DE00084F84C702046F8BD00F150030360F1E721
:101DF00010B50C4640B94FF0500383F31188BFF380
:101E00006F8FBFF34F8FFEE7884208D24FF0500329
:101E100083F31188BFF36F8FBFF34F8FFEE702226A
:101E20000021FFF7C1FF00B1846310BD2DE9FF471A
:101E3000884601921F46044640B94FF0500383F391
:101E40001188BFF36F8FBFF34F8FFEE751B9036C5B
:101E500043B14FF0500383F31188BFF36F8FBFF38B
:101E60004F8FFEE7022F0BD1E36B012B08D04FF011
:101E7000500383F31188BFF36F8FBFF34F8FFEE7DB
:101E800001F0B6FA50B9019E4EB14FF0500383F302
:101E90001188BFF36F8FBFF34F8FFEE700264FF01F
:101EA0000009DFF8E8A037E0019D1DB9FFF7AEFD9E
:101EB000002050E016B902A801F088F9FFF7A6FD4E
:101EC00000F0ACFEFFF780FD94F84430FF2B08BF14
:101ED00084F8449094F84530FF2B08BF84F845906F
:101EE000FFF794FD01A902A801F07EF9002846D170
:101EF000FFF76AFDA26BE36B9A422FD1FFF786FDD5
:101F0000019904F1100001F089F82046FFF7D4FE92
:101F100000F028FF50B30126FFF756FDA26BE36BDC
:101F20009A4201D3022FBFD13A4641462046FFF7DD
:101F30007BFE636A1BB104F1240001F0D1F838B1D3
:101F4000124B4FF080521A60BFF34F8FBFF36F8F69
:101F5000FFF75CFD012004B0BDE8F087FFF756FDF8
:101F60002046FFF7A9FE00F0FDFED4E74FF08053B6
:101F7000CAF80030BFF34F8FBFF36F8FCBE7204617
:101F8000FFF79AFE00F0EEFE92E700BF04ED00E0DE
:101F900010B5024600210120FFF706FF044638B1C4
:101FA0000023C0E90033C3601A461946FFF73EFF1D
:101FB000204610BD38B5044640B94FF0500383F3B6
:101FC0001188BFF36F8FBFF34F8FFEE7456801F0B5
:101FD00009FA85420AD1E368013BE36023B91A4656
:101FE00019462046FFF722FF012000E0002038BDFF
:101FF0002DE9F843894690461F46044640B94FF004
:10200000500383F31188BFF36F8FBFF34F8FFEE749
:1020100051B9036C43B14FF0500383F31188BFF300
:102020006F8FBFF34F8FFEE7022F0BD1E36B012BB6
:1020300008D04FF0500383F31188BFF36F8FBFF3C5
:102040004F8FFEE7FFF7C2FDEFF311864FF050030D
:1020500083F31188BFF36F8FBFF34F8FA26BE36BD6
:102060009A4201D3022F22D194F845503A466DB2DC
:1020700049462046FFF7D8FD6B1C13D1636A0BB9A4
:1020800001200BE004F1240001F02AF80028F7D029
:10209000B8F1000FF4D00120C8F8000086F31188D1
:1020A000BDE8F88301356DB284F84550E8E70020BB
:1020B000F4E770B50D46044640B94FF0500383F382
:1020C0001188BFF36F8FBFF34F8FFEE7036C43B1EF
:1020D0004FF0500383F31188BFF36F8FBFF34F8F1F
:1020E000FEE7036853B9436843B14FF0500383F3ED
:1020F0001188BFF36F8FBFF34F8FFEE7FFF766FDC9
:10210000EFF311864FF0500383F31188BFF36F8F05
:10211000BFF34F8FA26BE36B93421CD994F8453009
:1021200001325BB2A2635A1C10D1636A0BB9012061
:1021300009E004F1240000F0D3FF0028F7D0002DBF
:10214000F5D00120286086F3118870BD01335BB2A1
:1021500084F84530EBE70020F5E72DE9FF470F460F
:1021600001929946044640B94FF0500383F3118819
:10217000BFF36F8FBFF34F8FFEE751B9036C43B1CD
:102180004FF0500383F31188BFF36F8FBFF34F8F6E
:10219000FEE701F02DF950B9019D4DB14FF050030C
:1021A00083F31188BFF36F8FBFF34F8FFEE70025D6
:1021B0004FF00008DFF81CA155E0636AE560002BD2
:1021C00074D004F1240066E0019B1BB9FFF71EFCEC
:1021D00000206EE015B902A800F0F8FFFFF716FC2A
:1021E00000F01CFDFFF7F0FB94F84430FF2B08BF14
:1021F00084F8448094F84530FF2B08BF84F845806C
:10220000FFF704FC01A902A800F0EEFF002853D15B
:10221000FFF7DAFBA36BF3B9FFF7F8FB236833B9D9
:10222000FFF7D2FB606801F0F3F8FFF7EFFB0199CD
:1022300004F1240000F0F2FE2046FFF73DFD00F01F
:1022400091FD78B94FF08053CAF80030BFF34F8F3B
:10225000BFF36F8F06E0FFF7D9FB2046FFF72CFD99
:1022600000F080FD0125FFF7AFFBA66B002EABD081
:1022700039462046E568FFF70AFDB9F1000F9CD109
:102280002368013EA66313B901F062F96060236917
:1022900063B104F1100000F023FF38B10D4B4FF093
:1022A00080521A60BFF34F8FBFF36F8FFFF7AEFB03
:1022B000012004B0BDE8F0872046FFF7FDFC00F0E8
:1022C00051FDFFF781FBA36B002B3FF47FAFFFF7BE
:1022D0009DFBC7E704ED00E070B50D46044640B92C
:1022E0004FF0500383F31188BFF36F8FBFF34F8F0D
:1022F000FEE7466801F076F8864204D1E3680133D0
:10230000E360012070BD00232A4619462046FFF7EE
:1023100024FF0028F6D0E3680133E360F2E72DE9FB
:10232000F84389469046054640B94FF0500383F381
:102330001188BFF36F8FBFF34F8FFEE751B9036C66
:1023400043B14FF0500383F31188BFF36F8FBFF396
:102350004F8FFEE7FFF73AFCEFF311874FF0500382
:1023600083F31188BFF36F8FBFF34F8FAC6B1CB338
:1023700095F84460494676B22846FFF788FC013C50
:10238000731CAC6313D12B690BB901200BE005F171
:10239000100000F0A5FE0028F7D0B8F1000FF4D02F
:1023A0000120C8F8000087F31188BDE8F8830136E2
:1023B00076B285F84460E8E72046F4E7F8B50D46C4
:1023C000044640B94FF0500383F31188BFF36F8F79
:1023D000BFF34F8FFEE7036C49B94BB14FF0500389
:1023E00083F31188BFF36F8FBFF34F8FFEE743B9BD
:1023F0004FF0500383F31188BFF36F8FBFF34F8FFC
:10240000FEE7FFF7E3FBEFF311864FF0500383F392
:102410001188BFF36F8FBFF34F8FA06B30B1E768A8
:1024200020462946FFF733FCE760012086F3118838
:10243000F8BD10B5044640B94FF0500383F311883E
:10244000BFF36F8FBFF34F8FFEE7FFF7BDFAA46BAB
:10245000FFF7DCFA204610BD38B5054640B94FF00D
:10246000500383F31188BFF36F8FBFF34F8FFEE7E5
:10247000FFF7AAFAA86BEC6B241AFFF7C7FA2046FD
:1024800038BD40B94FF0500383F31188BFF36F8F0D
:10249000BFF34F8FFEE7806B7047806C704781649D
:1024A000704790F84C00704740B94FF0500383F3E9
:1024B0001188BFF36F8FBFF34F8FFEE7806BB0FAC9
:1024C00080F04009704740B94FF0500383F3118802
:1024D000BFF36F8FBFF34F8FFEE7836BC06BC31AE1
:1024E00058425841704730B5074A002352F83350DC
:1024F00002EBC3041DB942F83310606030BD0133F4
:10250000082BF3D1FAE700BF140A0020074A002382
:1025100002EBC3014968814202D152F8330070478F
:102520000133082BF4D10020704700BF140A0020AB
:1025300010B5084A002302EBC3014C68844204D161
:10254000002042F83300486010BD0133082BF2D15F
:10255000FAE700BF140A002010B5044640B94FF056
:10256000500383F31188BFF36F8FBFF34F8FFEE7E4
:10257000FFF7DEFF2046BDE8104001F033BC70B528
:1025800004460D461646FFF71FFA94F84430FF2B19
:1025900004BF002384F8443094F84530FF2B04BF77
:1025A000002384F84530FFF731FAA36B2BB932468C
:1025B000294604F1240000F075FD2046BDE8704076
:1025C000FFF77ABB4FF0500383F31188BFF36F8F8F
:1025D000BFF34F8FFEE7064B1A6812681AB94FF027
:1025E000FF325A6070471A68D268D2685268F8E7BA
:1025F00038070020F8B5184C0646A568E068043096
:102600000F46FFF76AF938B9E2682369D16A0122F7
:102610008A4023EA02032361731C07D137B1E168C2
:102620000E480431BDE8F840FFF734B9E368AD194E
:102630005D6006D3A06AE168BDE8F8400431FFF7A9
:1026400035B92068E1680431FFF730F96368AB42BF
:1026500088BF6560F8BD00BF380700204C07002028
:102660002DE9F84F4FEA820A804650460D469946BA
:102670000B9E01F0B5FB0746002800F0AA80BC20A5
:1026800001F0AEFB0446002800F0A080524607632C
:10269000A52138460CF04EFB236BAAF1040A9A449C
:1026A0002AF0070A6B1E04F134020F3513F8011FDC
:1026B00002F8011B197809B19D42F7D10A9D062D38
:1026C00028BF06254FF0000B271DE562C4E9135B08
:1026D000384684F843B0FFF7DAF8C5F1070504F18E
:1026E0001800FFF7D4F8C4F8B4B06022594624614A
:1026F000A561646284F8B8B004F154000CF01AFBD0
:102700003B4BA3653B4BE3653B4B23664A46414647
:102710005046FFF721F9206006B13460374DFFF7CE
:1027200053F9EB6A0133EB62EE6805F13008002ED5
:1027300052D1EC60EB6A012B20D14FF0140909FB58
:1027400006800136FFF798F8072EF8D12C4E304658
:1027500006F11409FFF790F84846FFF78DF806F1E7
:102760002800FFF789F806F13C00FFF785F8A6F18D
:10277000A800FFF781F82E60C5F82890D5F8103131
:10278000E26A296901330126C5F810316364142017
:1027900006FA02F30B4300FB028039462B61FFF778
:1027A00079F8FFF733F9D5F80C3163B1EB68DA6AE1
:1027B000E36A9A4207D2134B4FF080521A60BFF37C
:1027C0004F8FBFF36F8F3046BDE8F88F384601F06A
:1027D00009FB4FF0FF36F6E7D5F80C31002BCDD1D1
:1027E000EB68E26ADB6A9A4228BFEC60C6E700BF8A
:1027F000785C0108985C0108585C010838070020E3
:10280000F407002004ED00E070B505462C4CFFF7FE
:10281000DBF805B9E5682E1D3046FFF75EF858B9BC
:10282000E86A142101FB00410B6B2BB923690122DB
:10283000824023EA02032361AB6A1BB105F1180051
:10284000FFF74BF8D4F810310133C4F81031E368C6
:10285000AB421CD131461B48FFF71CF8D4F81431A9
:102860000133C4F81431FFF7D1F8D4F80C3133B385
:10287000E368AB4223D1D4F81831C3B14FF0500311
:1028800083F31188BFF36F8FBFF34F8FFEE7E36AC7
:1028900005F15400013BE3620EF0B6FB286B01F03A
:1028A000A1FA284601F09EFAFFF795FEDBE7064BFA
:1028B0004FF080521A60BFF34F8FBFF36F8F70BD20
:1028C000380700203008002004ED00E070B506460F
:1028D00040B94FF0500383F31188BFF36F8FBFF3FC
:1028E0004F8FFEE7134CE36883421CD0FFF76CF870
:1028F0007569FFF78BF823689D4216D0A36A9D4245
:1029000013D004F114039D4205D1B36A002B14BF08
:102910000220032070BDF834A54208D0002D0CBF62
:1029200004200120F6E70020F4E70220F2E704206B
:10293000F0E700BF3807002010B50446FFF744F861
:102940000CB9034BDC68E46AFFF760F8204610BD61
:102950003807002010B50446FFF738F9EFF311836C
:102960004FF0500282F31188BFF36F8FBFF34F8F88
:102970000CB9034AD46883F31188E06A10BD00BF24
:102980003807002006292DE9F84304460D4608D9EA
:102990004FF0500383F31188BFF36F8FBFF34F8F56
:1029A000FEE7FFF711F80CB9274BDC68E36C9D429A
:1029B0003FD0254F41D9FA68A24243D0FA68D66A7F
:1029C000AE428CBF00260126D4F82C90E5644B451E
:1029D000A36908BFE562002BA4BFC5F10705A56187
:1029E0001A4D6269142303FB09539A4218D104F16A
:1029F00004084046FEF771FF30B93B69012202FA34
:102A000009F223EA02033B61E26A39690123934038
:102A100014200B4300FB025041463B61FEF73AFF96
:102A20003EB10B4B4FF080521A60BFF34F8FBFF394
:102A30006F8FBDE8F843FEF7E9BFFE68321B5642D0
:102A40005641C1E70026BFE738070020680700208D
:102A500004ED00E070B5044640B94FF0500383F335
:102A60001188BFF36F8FBFF34F8FFEE71A4DEB68EE
:102A700083422FD0FEF7A8FF626905F114039A4242
:102A800024D1A36A05F1E40293421FD0F3B9261DB5
:102A90003046FEF722FFE26A2969012393400B4387
:102AA0002B61142005F1300300FB02303146FEF7A4
:102AB000F1FEEB68E26ADB6A9A4207D3074B4FF0FC
:102AC00080521A60BFF34F8FBFF36F8FBDE8704025
:102AD000FEF79CBF70BD00BF3807002004ED00E08A
:102AE0002DE9F041064640B94FF0500383F31188B9
:102AF000BFF36F8FBFF34F8FFEE7FFF767F8EFF37A
:102B000011874FF0500383F31188BFF36F8FBFF32A
:102B10004F8F194D726905F114039A4229D1B46A95
:102B200005F1E400844224D01CBBD5F81831EBB980
:102B3000EB68F46ADB6A06F104089C42404634BF45
:102B400000240124FEF7C9FEF26A2969012393409B
:102B50000B432B6114203035414600FB0250FEF739
:102B600099FE87F311882046BDE8F08106F118012F
:102B7000F5E70024F5E700BF3807002037B51B4C08
:102B80001B491C4804F58E730025019300952B46C4
:102B90008022FFF765FD01281AD100F001FF01280E
:102BA00016D14FF0500383F31188BFF36F8FBFF33B
:102BB0004F8FE368104A543313604FF0FF33636064
:102BC000C4F80C01A56003B0BDE83040FEF78CBF2F
:102BD000013008D14FF0500383F31188BFF36F8F9A
:102BE000BFF34F8FFEE703B030BD00BF38070020B2
:102BF000ED570108892E0008280000204FF05003EF
:102C000083F31188BFF36F8FBFF34F8F024B002206
:102C1000C3F80C21FEF7C6BE38070020034AD2F8DD
:102C200018310133C2F81831704700BF380700204F
:102C3000014B9868704700BF3807002008B5FEF7C1
:102C4000C5FF014B986808BD38070020014BD86AC2
:102C5000704700BF3807002058B9074BD86840B903
:102C60004FF0500383F31188BFF36F8FBFF34F8F83
:102C7000FEE73430704700BF380700202DE9F84FD9
:102C8000364BD3F818211C46002A60D19F680137C3
:102C90009F60B7B91B681B6843B14FF0500383F3C3
:102CA0001188BFF36F8FBFF34F8FFEE72368A26ACF
:102CB0002260A362D4F820310133C4F82031FFF739
:102CC0008AFC6368BB424FF0000510D9E368DB6AF9
:102CD000142202FB03431B6B022B28BF0125D4F8EF
:102CE0002831002B0CBF28460120BDE8F88FDFF803
:102CF00070904FF0010B4FF0140A23681B681BB94A
:102D00004FF0FF336360E1E72368DB68DE687368D8
:102D10009F42F7D306F104084046FEF7DEFDB36A92
:102D20001BB106F11800FEF7D8FDF06A22690BFA14
:102D300000F3134341460AFB00902361FEF7AAFD0E
:102D4000E368F26ADB6A9A4228BF0125D5E7D3F827
:102D500024310133C4F824310025C0E738070020AE
:102D6000680700202DE9F843324CD4F8183143B9F4
:102D70004FF0500383F31188BFF36F8FBFF34F8F72
:102D8000FEE7FEF721FED4F81831013BC4F81831F4
:102D9000D4F818512DB10024FEF738FE2046BDE8C6
:102DA000F883E36A002BF6D0012604F130074FF0D8
:102DB00014081DE0D4F8F030DD6805F1040905F1D0
:102DC0001800FEF78AFD4846FEF787FDE86A22698B
:102DD00006FA00F31343494608FB00702361FEF72F
:102DE00059FDE368EA6ADB6A9A4201D3C4F82861B4
:102DF000D4F8E430002BDDD10DB1FFF7ECFBD4F8B3
:102E000024514DB10126FFF739FF08B1C4F82861FC
:102E1000013DF8D1C4F82451D4F82831002BBAD0A0
:102E2000054B4FF080521A60BFF34F8FBFF36F8F87
:102E30000124B1E73807002004ED00E008B540B9EF
:102E40000F4B4FF080521A60BFF34F8FBFF36F8F5D
:102E500008BD0C4BD3F8181141B14FF0500383F368
:102E60001188BFF36F8FBFF34F8FFEE7FFF7D6FEDA
:102E7000FFF7C0FBFFF776FF0028E1D0E8E700BFCF
:102E800004ED00E0380700201A4C1B4E80B54FF0CF
:102E90008057D4F8143143B9236B012BF9D937602B
:102EA000BFF34F8FBFF36F8FF3E7FFF7B7FED4F891
:102EB000F850FFF757FF002DEBD0FEF785FDD4F853
:102EC0000431DD68281DFEF708FDE36A013BE3627B
:102ED000D4F81431013BC4F81431FEF797FD05F125
:102EE00054000EF091F8286B00F07CFF284600F0AB
:102EF00079FFCEE73807002004ED00E0194BD3F846
:102F0000182110B518461AB10122C3F8282110BDA6
:102F1000C3F828211A69B2FA82F2D2B2C2F11F02B2
:102F2000142151430B441C6B44B94FF0500383F3FD
:102F30001188BFF36F8FBFF34F8FFEE75C6B0144C7
:102F400064685C6338318C4204BF61685963142340
:102F500003FB0202536B044ADB68C360C36854334B
:102F60001360D4E7380700202800002070B505461C
:102F7000274CFEF729FD05B9E5682E1D3046FEF702
:102F8000ACFC58B9E86A142101FB00410B6B2BB96A
:102F900023690122824023EA02032361AB6A1BB149
:102FA00005F11800FEF799FC31461A48FEF772FC4D
:102FB000FEF72CFDD4F80C312BB1FEF705FDFFF721
:102FC0000AFBFEF723FDE368AB4216D1D4F80C31BF
:102FD000A3B1D4F8183143B14FF0500383F31188F3
:102FE000BFF36F8FBFF34F8FFEE70B4B4FF0805255
:102FF0001A60BFF34F8FBFF36F8F70BDE26A6169D4
:10300000914201D1E360F8E7BDE87040FFF776BF79
:10301000380700204C07002004ED00E010B50C46F6
:1030200040B94FF0500383F31188BFF36F8FBFF3A4
:103030004F8FFEE7054BD9681831FEF737FC204665
:103040000121BDE81040FFF7D5BA00BF38070020C6
:1030500010B5144640B94FF0500383F31188BFF305
:103060006F8FBFF34F8FFEE70D4BD3F8182142B996
:103070004FF0500383F31188BFF36F8FBFF34F8F6F
:10308000FEE7DA6841F000419161D9681831FEF736
:1030900001FC20460121BDE81040FFF7ABBA00BF9C
:1030A0003807002038B50D46144640B94FF050039C
:1030B00083F31188BFF36F8FBFF34F8FFEE7074B8A
:1030C000D9681831FEF7E6FB002C21460CBF2846D4
:1030D0004FF0FF30BDE83840FFF78CBA38070020CA
:1030E000C36870B5DD6845B94FF0500383F31188AC
:1030F000BFF36F8FBFF34F8FFEE705F11806134C38
:103100003046FEF7EAFBD4F81831DBB92E1D304605
:10311000FEF7E3FBEA6A2169012393400B43236135
:10312000142004F13003314600FB0230FEF7B2FBFD
:10313000E368EA6ADB6A9A4286BF0120C4F8280184
:10314000002070BD314604F1E400EFE738070020AD
:10315000F8B51D4DD5F8182142B94FF0500383F34F
:103160001188BFF36F8FBFF34F8FFEE7C66841F042
:103170000041016046B94FF0500383F31188BFF35B
:103180006F8FBFF34F8FFEE7371DFEF7A6FB384664
:10319000FEF7A3FBF26A2969012404FA02F30B4348
:1031A0002B61142005F1300300FB02303946FEF795
:1031B00071FBEB68F26ADB6A9A4286BFC5F8284168
:1031C00020460020F8BD00BF3807002008B508B928
:1031D000FFF7F8F9034BD3F820219B6802604360A6
:1031E00008BD00BF3807002070B50D46044640B941
:1031F0004FF0500383F31188BFF36F8FBFF34F8FEE
:10320000FEE741B94FF0500383F31188BFF36F8F8E
:10321000BFF34F8FFEE7FEF7D7FB2B680D4A581C14
:10322000916810D0D2F82001D4E90062864201D022
:1032300091420DD2881A83420AD95B1A13442B603B
:103240002046FFF7C3FF0024FEF7E0FB204670BDD9
:103250000124F9E738070020024B0122C3F8282196
:10326000704700BF3807002000B1806C704700B184
:10327000816470472DE9F0410C4617469846064692
:1032800060BB1B4BDD68256005F134036360EB6AAE
:1032900023612B6BE3616B6CA360237B032B07D152
:1032A000FFF7BCFCAB6A0BB102232373FFF75AFD97
:1032B000EB6C6361B8F1050F4FF00003A3610FD011
:1032C00084F80C808FB1296B0A46531A12F8010B4F
:1032D000A528FAD09B082384BDE8F0810546D2E7F3
:1032E0003046FFF7F3FA2073ECE72784F4E700BFDA
:1032F000380700202DE9F84F0D6881460C469346AB
:1033000015B34B685B684B6001F10807BB4204BF13
:10331000CB684B604B68D3F80C8000254FF0240A33
:1033200063685B6863609F4204BFE36863606368CF
:10333000DE680AFB05915B4601223046FFF79AFFE3
:10334000B04505F10105EBD12846BDE8F88F2DE920
:10335000F047214D07461646FFF760FCEB6A8B42AB
:1033600037D84FF000094C4605F1A80A4FF0240861
:103370000AEB090108FB04700122FFF7BBFFA9F16A
:10338000140919F18C0F0444F2D12968022208FBB8
:103390000470FFF7AFFF0444A96A022208FB04701F
:1033A000FFF7A8FF044404220C4908FB0470FFF750
:1033B000A1FF044408FB047003220949FFF79AFFA8
:1033C00004440EB100233360FFF7CCFC2046BDE877
:1033D000F0870024F8E700BF3807002030080020FD
:1033E0004C070020014BD868704700BF3807002009
:1033F000064BD3F80C2132B1D3F81831002B0CBF97
:103400000220002070470120704700BF38070020CD
:103410002DE9F041054600282DD01E4CC36AE26814
:10342000D26A934227D282691B4E002AA1BFE2686A
:10343000D26AC2F1070282611427426907FB036363
:103440009A4215D100F104084046FEF746FAA0B1B1
:10345000E3682169DA6AEA62012393400B4314208E
:103460002361414600FB0260BDE8F041FEF712BA5D
:10347000E368DB6AC362BDE8F081E96A07FB0147E4
:103480003B6B002BE4D1236901228A4023EA02032B
:103490002361DDE7380700206807002070B5044687
:1034A00008B9002070BD224DEB68834208D04FF070
:1034B000500383F31188BFF36F8FBFF34F8FFEE785
:1034C0001B6D43B94FF0500383F31188BFF36F8F27
:1034D000BFF34F8FFEE7C16AC26C013B91420365A7
:1034E000DFD0002BDDD1061D3046FEF7F6F958B9C6
:1034F000E06A142101FB00510B6B2BB92B690122EF
:10350000824023EA02032B61E36C2969E362C3F181
:103510000702A261012404FA03F20A432A61054A60
:10352000142000FB03203146FEF7B4F92046B9E72A
:103530003807002068070020044BDA68D9689069D2
:10354000DA68CB6AC3F1070393617047380700203C
:10355000044BDA681AB1D9680A6D01320A65D86875
:10356000704700BF3807002070B5184C06460D465E
:10357000FEF72AFAE368D3F8B4307BB9E368012197
:1035800083F8B81055B12846FFF734F8104B4FF0C8
:1035900080521A60BFF34F8FBFF36F8FFEF736FA7A
:1035A000FEF712FAE368D3F8B45025B1E36856B1D8
:1035B0000022C3F8B420E368002283F8B820FEF7A5
:1035C00025FA284670BD6A1EF3E700BF38070020C1
:1035D00004ED00E02DE9F041214C1E4680460F46E7
:1035E0001546FEF7F1F9E36893F8B830022B16D0D0
:1035F000E368D3F8B42022EA0802C3F8B420E368F1
:10360000012183F8B81056B13046FEF7F3FF154B91
:103610004FF080521A60BFF34F8FBFF36F8FFEF7EA
:10362000F5F9FEF7D1F91DB1E368D3F8B4302B609A
:10363000E36893F8B830012B1FBFE368D3F8B410E8
:10364000B943C3F8B410E3684FF0000214BF01257A
:10365000002583F8B820FEF7D9F92846BDE8F081A7
:103660003807002004ED00E0F8B50F4616461D4669
:10367000044640B94FF0500383F31188BFF36F8FB6
:10368000BFF34F8FFEE7FEF79FF915B1D4F8B430C2
:103690002B6094F8B8500223721EEDB284F8B83053
:1036A000032A0ED8DFE802F002080514D4F8B4109B
:1036B0000F43C4F8B47004E0D4F8B4300133C4F854
:1036C000B430012D08D00125FEF7A0F92846F8BD39
:1036D000022DEED10025F7E7271D154E3846FEF7DF
:1036E000FCF8E26A316905FA02F30B4333611420F6
:1036F00006F1300300FB02303946FEF7CBF8A36A2F
:1037000043B14FF0500383F31188BFF36F8FBFF3C2
:103710004F8FFEE7F368E26ADB6A9A42D3D9054B22
:103720004FF080521A60BFF34F8FBFF36F8FCBE71C
:103730003807002004ED00E02DE9F843DDF8208093
:10374000894615461E46044640B94FF0500383F3A0
:103750001188BFF36F8FBFF34F8FFEE7FEF736FA86
:10376000EFF311874FF0500383F31188BFF36F8F8E
:10377000BFF34F8F16B1D4F8B430336094F8B8600B
:1037800002236A1EF6B284F8B830032A09D8DFE8AB
:1037900002F0020F1715D4F8B41041EA0901C4F879
:1037A000B410012E0FD0012087F31188BDE8F883F3
:1037B000D4F8B4300133C4F8B430F2E7022E37D075
:1037C000C4F8B490EDE7A36A43B14FF0500383F31C
:1037D0001188BFF36F8FBFF34F8FFEE7154DD5F8FC
:1037E0001831EBB904F104094846FEF776F8E36AAC
:1037F0002A699E401643142005F130022E61494685
:1038000000FB0320FEF746F8EB68E26ADB6A9A42A7
:10381000C9D90120B8F1000F07D0C8F80000C3E7EC
:1038200004F1180105F1E400ECE7C5F82801BBE755
:103830000020B9E7380700202DE9F8430F46044679
:1038400040B94FF0500383F31188BFF36F8FBFF37C
:103850004F8FFEE7FEF7BAF9EFF311884FF05003F0
:1038600083F31188BFF36F8FBFF34F8F022394F858
:10387000B86084F8B830D4F8B430F6B20133012E11
:10388000C4F8B43028D1A36A43B14FF0500383F396
:103890001188BFF36F8FBFF34F8FFEE7144DD5F83C
:1038A0001831EBB904F104094846FEF716F8E36A4B
:1038B0002A699E401643142005F130022E614946C4
:1038C00000FB0320FDF7E6FFEB68E26ADB6A9A4241
:1038D00002D901234FB13B6088F31188BDE8F8831A
:1038E00004F1180105F1E400ECE7C5F82831F3E72D
:1038F0003807002038B5054608B9084BDD68FEF7E3
:1039000063F895F8B8300024022B04BF85F8B8405E
:103910000124FEF77BF8204638BD00BF38070020A1
:10392000F8B50F4CFEF750F82568A5B9271D3846A5
:1039300004F11806FDF7A0FF3046FDF79DFF2A466B
:103940000C210A20C4E90B76FEF72EFA206010B194
:103950000449FEF7C8FDBDE8F840FEF757B800BFC0
:1039600064080020F2570108914208B541600061E7
:103970000AD8D21A83699A420ED2084B011D186BDD
:10398000FDF794FF002008BD9A4201D2994203D26C
:10399000024B011DD86AF3E70120F4E76408002018
:1039A00007B5FFF7BDFF0D4B1A685AB134330193C9
:1039B000022300934FF48072002309490948FEF75F
:1039C0004FFE40B94FF0500383F31188BFF36F8F60
:1039D000BFF34F8FFEE703B05DF804FB64080020DF
:1039E000F7570108013B00082DE9F04180462C20E3
:1039F0000D4617461E4600F0F3F90446A8B145B936
:103A00004FF0500383F31188BFF36F8FBFF34F8FD5
:103A1000FEE7FFF785FF069BC4F80080C4E9065760
:103A200026626362201DFDF732FF2046BDE8F0816B
:103A300030B5154685B01A46034640B94FF05003DD
:103A400083F31188BFF36F8FBFF34F8FFEE70D4CE9
:103A5000206880B10529CDE9011503930DDCFFF73E
:103A6000C7FC0023022808BF089A206818BF1A461E
:103A700001A9FEF7DBF905B030BD002301A9FEF76F
:103A8000B7FAF8E7640800202DE9F3411B4D4FF029
:103A90000008EB6A1A682AB92A6BC5E90B2302B041
:103AA000BDE8F081DB68DC681E68271D3846FDF73D
:103AB00014FF636A20469847E369012BE9D1A369A3
:103AC00033449E4206D2636024613946E86AFDF7BA
:103AD000EDFEDEE70023CDF8008032461946204691
:103AE000FFF7A6FF0028D4D14FF0500383F31188CD
:103AF000BFF36F8FBFF34F8FFEE700BF6408002056
:103B00002DE9F047624FDFF88C8186B03D46FB6AB5
:103B10001C68002C3CD0DB68D3F80090FFF77EF8DF
:103B2000FFF786F8AB6B9842064633D2FFF7ACFF3F
:103B3000AE63FFF717F94FF0010900231A4603A9F6
:103B40002868FEF70AFB0028E1D0039B002BF4DB7A
:103B5000059C636913B1201DFDF7BFFEFFF768F8F0
:103B6000AB6B9842064601D2FFF78EFF039BAE6314
:103B7000092BE2D809FA03F313F4047A75D113F090
:103B8000C70F4CD19B06D8D5204600F02BF9D4E7BF
:103B9000A146C3E7A8634CB381453ED8FFF7E2F8DE
:103BA000EB6ADB68DC68201DFDF797FEE369012BFB
:103BB00018D1A1694B46324649442046FFF7D4FE4E
:103BC00080B1002300934A4619462046FFF730FF94
:103BD00040B94FF0500383F31188BFF36F8FBFF3E9
:103BE0004F8FFEE7636A20469847A4E72B6B1A685D
:103BF000B2FA82F25209A9EB06012868FEF7BFFC6F
:103C0000FFF7B0F8002896D14FF08053C8F8003085
:103C1000BFF34F8FBFF36F8F8DE70022EBE7A169F2
:103C2000049B324619442046FFF79EFE002884D0AC
:103C3000636A20469847E369012B7FF47EAFA2694F
:103C40000499CDF800A00A44534651462046FFF798
:103C5000EFFE00287FF471AF4FF0500383F311881B
:103C6000BFF36F8FBFF34F8FFEE70499A16141B996
:103C70004FF0500383F31188BFF36F8FBFF34F8F63
:103C8000FEE73346324631442046FFF76DFE54E7E7
:103C90006408002004ED00E0064B586B40B94FF07B
:103CA000500383F31188BFF36F8FBFF34F8FFEE78D
:103CB000704700BF6408002040B94FF0500383F301
:103CC0001188BFF36F8FBFF34F8FFEE78069704796
:103CD00040B94FF0500383F31188BFF36F8FBFF3E8
:103CE0004F8FFEE74068704740B94FF0500383F3B1
:103CF0001188BFF36F8FBFF34F8FFEE700687047E7
:103D000010B5044640B94FF0500383F31188BFF358
:103D10006F8FBFF34F8FFEE7FDF756FE64690034E7
:103D200018BF0124FDF772FE204610BD10B50446F1
:103D300040B94FF0500383F31188BFF36F8FBFF387
:103D40004F8FFEE7FDF740FE246AFDF75FFE204639
:103D500010BD38B50D46044640B94FF0500383F30B
:103D60001188BFF36F8FBFF34F8FFEE7FDF72CFE77
:103D70002562BDE83840FDF749BE00BF38B50546AD
:103D8000FEF74CFF0D4B0E491C6862198A4209D997
:103D90000C4B1B680C221A60FEF7E4FF4FF0FF3457
:103DA000204638BD1A605A68521B5A60064A13688A
:103DB0002B441360FEF7D6FFF2E700BF0C00002093
:103DC0007C8A002028000020A0080020FFF7D6BF32
:103DD000FEF724BFFEF7C6BFFEF720BFFEF7C2BF47
:103DE0000CF04EB90CF054B900B58BB068460CF02D
:103DF00087F9034B08985B6818440BB05DF804FB27
:103E00000C000020704700BF08B5FEF7B7FE002089
:103E100008BD08B5FFF7ECFA10F1FF3018BF01201C
:103E200008BDEFF305830BB1FEF708BFFEF700BF37
:103E300030B5B0F90840028A0B46D0E9001585B0CC
:103E4000842C14BF0334002403A8CDE90040284685
:103E5000FEF706FC01280CBF0398002005B030BD1A
:103E6000FFF7C0BA08B5FEF7CFFC002008BD054B30
:103E70004FF080521A60BFF34F8FBFF36F8F002057
:103E8000704700BF04ED00E008B5842914BF03317A
:103E90000021FEF777FD002008BD08B5EFF305838C
:103EA0002BB1FEF757FD062804D9842008BDFEF784
:103EB00043FDF8E7033800B2F8E708B5002808BF6B
:103EC0000120FEF7BBFF002008BD07B50368009383
:103ED000013913464A424A4103480121FFF784FD54
:103EE00003B05DF804FB00BF7F5801081FB5002434
:103EF0000394A14214BF0A460122EFF30583A3B144
:103F0000009403AB0921FFF793FD012813D1039B14
:103F100013B9002004B010BD084B4FF080521A6056
:103F2000BFF34F8FBFF36F8FF3E700930421FFF7C9
:103F30007FFD0128EDD0FF20ECE700BF04ED00E09D
:103F40001FB500240394EFF30583ABB1009403ABDA
:103F500022460821FFF76CFD012814D1039B13B9F9
:103F6000002004B010BD094B4FF080521A60BFF31F
:103F70004F8FBFF36F8FF3E700931A460321FFF7CC
:103F800057FD0128ECD0FF20EBE700BF04ED00E077
:103F900007B5EFF305836BB94FF0FF3200920521AF
:103FA0001A46FFF745FD01280CBF0020FF2003B093
:103FB0005DF804FB8220FAE71FB504AB00220292F1
:103FC00043F8042DEFF30582BAB102AA0092012250
:103FD000FFF7B2FB012804D04FF0004005B05DF8B8
:103FE00004FB029B3BB1084B4FF080521A60BFF3B9
:103FF0004F8FBFF36F8F0398F0E70122FFF734FB79
:104000000128F8D0E8E700BF04ED00E030B585B046
:104010000023044615460293EFF3058010B1822376
:10402000019307E0134602AAFFF7D4FA01280BD048
:1040300045B9019504AB13E9070084E80700204661
:1040400005B030BD4023EBE7029B002BB4BF8623B5
:104050000823E5E70120FDF79BBF13B500240A46BE
:104060000194E8B1EFF30583A3B101AA2146FEF75D
:1040700056F9012802D0FF2002B010BD019B3BB1D0
:10408000084B4FF080521A60BFF34F8FBFF36F8F12
:104090000020F1E71946FEF760F80128F8D0EAE7BA
:1040A0008020E9E704ED00E013B500240194EFF36C
:1040B000058393B101A9FDF7FCFF012813D1019BF2
:1040C00013B9002002B010BD084B4FF080521A60A7
:1040D000BFF34F8FBFF36F8FF3E71A461946FDF713
:1040E000A5FE0128EDD0FF20ECE700BF04ED00E0C5
:1040F00010B5EFF305841CB9FEF72EFA204610BD6B
:104100008220FCE7012910B508460CD103220021CA
:10411000FDF74AFE044620B100231A461946FDF772
:1041200085FE204610BDBDE81040FDF761BE13B509
:1041300000240A460194E8B1EFF30583A3B101AA74
:104140002146FEF7ECF8012802D0FF2002B010BD96
:10415000019B3BB1084B4FF080521A60BFF34F8F69
:10416000BFF36F8F0020F1E71946FDF7F6FF012836
:10417000F8D0EAE78020E9E704ED00E0FFF794BF1C
:10418000FFF7B6BF2DE9F041466807461420FFF758
:1041900027FE044608B303363868A06026F00306FD
:1041A0000025E6602561FFF71BFE80466060D0B108
:1041B00038687043FFF714FE0646206080B96068D7
:1041C000FFF710FE2046FFF70DFE344605E062685B
:1041D000D15401333A689A42F9D82046BDE8F081BB
:1041E0002B462946F6E72046FFF7FCFD4446F4E758
:1041F00070B50546EFF305847CB1EFF311844FF001
:10420000500383F31188BFF36F8FBFF34F8FA968FB
:104210000022914204D1002612E0FDF7D5FBF6E71B
:104220002B6968681344994298BF0023C618C05C84
:1042300068B901223270EE6828682B6106FB03061C
:10424000EFF305832BB184F31188304670BD013242
:10425000DFE7FDF7DBFBF8E708B5FFF7C9FF08B1BB
:104260000023036008BD88B181B103688B420DD87B
:10427000CB1AC168B3FBF1F201FB123131B983688B
:10428000934203D943680846995470478020704789
:104290000022D0E90001FDF787BD1FB50024019180
:1042A0000394A24208BF0122EFF30583ABB123467A
:1042B00003AA01A9FDF79CFE012802D0FF2004B04B
:1042C00010BD039B3BB1084B4FF080521A60BFF307
:1042D0004F8FBFF36F8F0020F1E701A9FDF7A6FD17
:1042E0000128F8D0EAE700BF04ED00E0F0B585B0A2
:1042F00000260446174608460391029601AD11B9FF
:104300008023019317E00096EFF30583D3B16A464B
:1043100002A9FEF704F8012804BF10230193009BB3
:1043200018BF01963BB10D4B4FF080521A60BFF39E
:104330004F8FBFF36F8F95E8070084E80700204692
:1043400005B0F0BD02A9FDF708FF012801D1102337
:10435000D7E7002F0CBF00234023D2E704ED00E095
:104360007FB503688468019305464368029300267D
:104370000C200396FFF734FDAB6820601C686CB11D
:104380002560324604212868FDF70EFDAB686060A9
:104390001E68746824B93046FFF724FD204608E003
:1043A00001A8FFF7EFFEAB68B06018688468002CC6
:1043B000F2D004B070BD10B18068FFF719BF70472C
:1043C00038B50446FFF7F7FF30B1024600252168F3
:1043D0004968131A994200D838BD02F8015BF6E724
:1043E0001FB5019110B300240394EFF305834068D7
:1043F000ABB1234603AA01A9FDF7FAFD012802D0BB
:10440000FF2004B010BD039B3BB1094B4FF080521D
:104410001A60BFF34F8FBFF36F8F0020F1E71A468A
:1044200001A9FDF703FD0128F7D0E9E78020E8E7BF
:1044300004ED00E0F0B585B004461746039101ADE8
:1044400011B98023019319E000260096EFF305834C
:104450004868D3B16A4602A9FDF761FF012804BF8D
:1044600020230193009B18BF01963BB10D4B4FF0E9
:1044700080521A60BFF34F8FBFF36F8F95E807002C
:1044800084E80700204605B0F0BD02A9FDF765FEEF
:10449000012801D12023D5E7002F14BF402300239A
:1044A000D0E700BF04ED00E010B18068FFF7DBBE8D
:1044B0008020704708B5FEF79BFF012803D0BDE8B8
:1044C0000840FDF7E7BA08BD08B5FEF74FFD00202C
:1044D00008BD08B5EFF305836BB1FEF701FB0128BA
:1044E00007D1064B4FF080521A60BFF34F8FBFF3D6
:1044F0006F8F002008BDFEF7ADFAFAE704ED00E08B
:1045000008B5FEF78BFB002008BD08B5FEF72AFCB6
:10451000012814BFFF20002008BD812070478120A2
:104520007047002070477FB5044616460846039141
:1045300001AD41B98023019395E8070084E80700A5
:10454000204604B070BD012302A9FDF706FE012834
:1045500001D11023EFE7002E0CBF00234023EAE730
:10456000EFF305830BB1FDF78CBFFDF762BFFDF7DD
:1045700073BFFFF7BDBD0420FDF70ABD08B5FDF709
:1045800019FD012814BFFF20002008BD08B530B177
:10459000FDF7A2FE012814BFFF20002008BD8020E7
:1045A000FCE7FDF746BF00BF2DE9F043A94C257895
:1045B00085B0002D40F04B81A74E30682B46294630
:1045C000022240680CF08CFD30682B4629460222FE
:1045D00080680CF085FD30682B4602222946C068B1
:1045E0000CF07EFD9D4B1A6B42F001021A631B6BAF
:1045F00003F001030393039B994B04221F6892FA73
:10460000A2F6B6FA86F692FAA2F00321760001FA33
:1046100006F6B0FA80F027EA06064000022707FAFD
:1046200000F030431860D3F820E092FAA2F0B0FA1C
:1046300080F092FAA2F64FF00F0CB8400CFA00F09E
:10464000B6FA86F62EEA000EBE40072000FA06F6FD
:104650004EEA06061E62D3F8088092FAA2FEBEFA5F
:104660008EFE92FAA2F6B6FA86F64FEA4E0E01FADE
:104670000EFE760028EA0E0E07FA06F64EEA060649
:104680009E605E6826F004065E60D3F80CE092FA45
:10469000A2F6B6FA86F692FAA2F2760001FA06F6C9
:1046A000B2FA82F22EEA060E5200012606FA02F251
:1046B0004EEA0202DA60D3F80090082292FAA2F8D9
:1046C000B8FA88F892FAA2FE08FA06F8BEFA8EFE48
:1046D00001FA08F80EFA06FE07FA0EFE29EA0808A3
:1046E00048EA0E08C3F80080D3F820E092FAA2F955
:1046F000B9FA89F992FAA2F809FA07F9B8FA88F82A
:104700000CFA09FC08FA07F82EEA0C0C00FA08F07B
:104710004CEA00001862D3F808C092FAA2F0B0FA8E
:1047200080F092FAA2FEB040BEFA8EFE01FA00F0CE
:104730002CEA00000EFA06FC07FA0CF707439F600C
:10474000586820F008005860D86892FAA2F7B7FAC3
:1047500087F792FAA2F2B2FA82F2B740B940B240B9
:1047600020EA010106FA02F21143D9603D4BDA68F2
:10477000C2F30222C2F10701042902F1040328BF97
:104780000421062B4FF0FF3303FA01F36FEA030312
:1047900088BFD51E03F0060303FA05F52D01324B41
:1047A000EDB2402283F826535A602C4B1A6C42F427
:1047B00000321A641B6C03F400330293029B2B4BF0
:1047C000DA6842F00C02DA60DA6822F4B052DA6099
:1047D0001A6922F440521A61254A12686425520867
:1047E000192151434FF4E122B1FBF2F0B0FBF5F295
:1047F00005FB120212011F48B1FBF0F13232B2FB8D
:10480000F5F202EB011292B29A60DA681A4842F4A9
:104810000052DA601A680192019A5A680192019A6C
:10482000DA6842F02002DA605A6942F001025A6105
:104830000021FFF72DFD002160601048FFF728FDE3
:10484000A0600F48FFF706FC0123E060237005B06D
:10485000BDE8F083A40800202800002000380240B2
:104860000000024000ED00E000E100E000440040F4
:10487000140000200020BF02B0500108B850010809
:10488000C05001080FB437B50B4D4FF0FF31E86849
:10489000FFF7E3FB70B907A9069801910DF0FAFC48
:1048A0000446E868FFF700FC204603B0BDE830404E
:1048B00004B070470024F7E7A4080020074B10B5A8
:1048C000C1B204464FF0FF325868FFF7E6FC044AD5
:1048D000D36843F08003D360204610BDA4080020B5
:1048E000004400401FB5054B01A84FF0FF32996806
:1048F000FFF7FCFC029805B05DF804FBA40800205B
:1049000070B50E4615460C46A31B9D4202DC25EAF7
:10491000E57070BD14F8010BFFF7D0FFF4E710B598
:104920000C46FFF7DFFF431C16BF2070002001205C
:1049300010BD044B5968044B0022C9B29868FFF7B8
:10494000ACBC00BF00440040A40800201FB50C4BC5
:104950000022596801A8FFF7C9FC019B102B0AD05F
:10496000402B00D023B9074AD36823F08003D360DB
:1049700005B05DF804FB034B9DF808205A60F7E78B
:10498000A40800200044004007B5104B1B680193A9
:10499000019BD80702D50E48FFF774FF019B9907CA
:1049A00002D50C48FFF76EFF019B1A0702D50A4893
:1049B000FFF768FF019B5B0705D5084803B05DF86A
:1049C00004EBFFF75FBF03B05DF804FB0044004059
:1049D000FF5701081C5801083858010856580108AB
:1049E00010B50D4C23689B0604D5E368980601D5E5
:1049F000FFF79FFFE368190604D523681A0601D55F
:104A0000FFF7A4FF044B5B69DB0703D5BDE810404B
:104A1000FFF7BABF10BD00BF004400400F49D1F8F6
:104A2000883043F47003C1F888300D4B1A680020B9
:104A300042F001021A6098601A6822F0847222F42F
:104A400080321A60074A5A601A6822F480221A607B
:104A5000D8604FF000638B60704700BF00ED00E04E
:104A60000038024010300024174A1849936803F0B8
:104A70000C03042B10B50DD0082B0DD0144B0B607C
:104A8000114B144A9B68C3F30313D25C0B68D340E9
:104A90000B6010BD104BF2E7546850685268630217
:104AA000C2F3881200F03F004CBF0B4B084BB3FB26
:104AB000F0F35343044A5268C2F3014201325200F8
:104AC000B3FBF2F3DBE700BF003802401400002024
:104AD0000024F400C450010800127A007047FEE779
:104AE000FEE7FEE7FEE7704708B500F087F8BDE88F
:104AF0000840FFF7DFBC1460010800000020C80573
:104B00000020C80500207C0A0020000008B50548E8
:104B1000054CFFF7B7FE0448FBF79CFB2046FBF76C
:104B2000FBFBFBE7725801081800002010B5064C8B
:104B30000648FBF78FFB217821B90548FFF778F984
:104B40000123237010BD00BFB4080020180000200E
:104B5000DC5001087047704710B5094B4FF0FF3229
:104B600000241A621C625A625C621A611C615A61FA
:104B70005C619A619C61FFF7EEFF204610BD00BFAB
:104B80000038024070B50E4A0E4E05464FF47A7357
:104B90003078B3FBF0F31068B0FBF3F007F014FDCE
:104BA000044650B90F2D08D8024629464FF0FF3071
:104BB00007F0AAFC7560204670BD0120FCE700BF2D
:104BC000140000202000002008B50B4B1A6842F4A6
:104BD00000721A601A6842F480621A601A6842F41D
:104BE00080721A60032007F07DFC0F20FFF7CAFFD8
:104BF000FFF7B0FF002008BD003C0240034A044B11
:104C000011681B780B441360704700BF540A0020E2
:104C100020000020014B1868704700BF540A002094
:104C2000014B5868704700BF2000002008B5054BB5
:104C30001A78824204D018705868FFF7A3FF08BDA5
:104C40000020FCE720000020014B1878704700BFCF
:104C50002000002038B50446FFF7DCFF631C1CBFB2
:104C6000054B1B78054618BFE418FFF7D3FF401B20
:104C7000A042FAD338BD00BF20000020024A1368CA
:104C800023F002031360704710E000E0024A13684B
:104C900043F002031360704710E000E000487047E3
:104CA00000040701014B1868000C7047002004E065
:104CB000024B1868C0F30B00704700BF002004E0EF
:104CC000024A536843F0010353607047002004E038
:104CD000024A536823F0010353607047002004E048
:104CE000024A536843F0020353607047002004E017
:104CF000024A536823F0020353607047002004E027
:104D0000024A536843F0040353607047002004E0F4
:104D1000024A536823F0040353607047002004E004
:104D2000014B01221A60704700042742014B002208
:104D30001A60704700042742044B1B680360044B51
:104D40001B684360034B1B6883607047107AFF1F2A
:104D5000147AFF1F187AFF1F704710B50446002809
:104D600000F09980036C23B9436480F83C30FBF772
:104D7000B3FF236CDB0600F18C80236C23F4885393
:104D800023F0020343F002032364444B5A6822F4E5
:104D900040325A605A6861680A435A602368216940
:104DA0005A6822F480725A605A6842EA01225A60B4
:104DB0005A68A16822F040725A605A680A435A60E1
:104DC0009A68E16822F400629A609A680A439A60DD
:104DD0003349A26A8A4250D0996821F07061996083
:104DE00099680A439A609A68E16A22F040529A6090
:104DF0009A680A439A609A68A16922F002029A604E
:104E00009A6842EA41029A60226A002A3DD05A68B2
:104E1000616A42F400625A605A6822F460425A6041
:104E20005A68013942EA41325A60DA6AE16922F489
:104E30007002DA62DA6A013942EA0152DA629A6889
:104E4000216B22F400729A609A6842EA41229A60C9
:104E50009A68616922F480629A609A68002042EA46
:104E600081229A606064236C23F0030343F0010302
:104E70002364002384F83C3010BD9A6822F07062ED
:104E80009A609A6822F04052B4E75A6822F40062AD
:104E9000CAE70120EDE70120EEE700BF0023014053
:104EA0000100000F704738B50446A0B1036C43F011
:104EB0000203036403689A6822F001029A609D6805
:104EC00015F0010503D1FFF7EDFF656425640020AF
:104ED00084F83C0038BD0120FCE782B00023019338
:104EE00090F83C30012B4ED0012380F83C30036811
:104EF0009A68D10705D59A68D20714D4002002B069
:104F000070479A68214942F001029A60204A12686B
:104F1000B2FBF1F202EB42020192019A002AEAD0BE
:104F2000019A013AF8E7026C22F4E06222F00102F1
:104F300042F4807202645A68510541BF026C22F447
:104F4000405242F480520264026C12F480521CBF40
:104F5000426C22F006024264002280F83C206FF08E
:104F600022021A600B4A5268D20608D1986810F0E3
:104F70004050C3D19A6842F080429A60BFE7064A27
:104F80009342BBD1F2E70220B9E700BF40420F00D5
:104F900014000020002301400020014090F83C3024
:104FA000012B17D0012380F83C3003689A6822F067
:104FB00001029A609B68DB0707D4036C23F48853D3
:104FC00023F0010343F001030364002380F83C3025
:104FD000184670470220704703689A6870B55605F6
:104FE00004460D460BD59B68D80508D5236C43F0C5
:104FF00020032364002384F83C30012070BDFFF7B8
:1050000009FE064623681A6892070CD56FF0120253
:105010001A60226C42F4007222649A6812F0405FB7
:1050200013D00020EAE7691CEDD045B9236C43F0AA
:1050300004032364002384F83C300320DEE7FFF7F9
:10504000E9FD801BA842DDD9F0E7A269002AE8D17A
:10505000DA6A12F4700F02D09B685B05E1D4236C0E
:1050600023F480732364206C10F48050D9D1236C16
:1050700043F001032364C1E7F8B504460E46154624
:10508000FFF7C8FD074623681A6836EA02020AD10C
:10509000012E226C19D142F4803222646FF0010299
:1050A0001A6000200AE06A1CEED045B9236C43F078
:1050B00004032364002384F83C300320F8BDFFF789
:1050C000A9FDC01BA842DED9F0E742F48062226449
:1050D000626C42F0020262646FF02002E0E782B08C
:1050E0000023019390F83C30012B54D0012380F829
:1050F0003C3003689A68D10705D59A68D20714D462
:10510000002002B070479A68244942F001029A6078
:10511000234A1268B2FBF1F202EB42020192019AB9
:10512000002AEAD0019A013AF8E7026C22F4E06220
:1051300022F0010242F4807202645A68510541BFB4
:10514000026C22F4405242F480520264026C12F467
:1051500080521CBF426C22F006024264002280F89A
:105160003C206FF022021A605A6842F0806242F0DE
:1051700020025A600B4A5268D20608D1986810F093
:105180004050BDD19A6842F080429A60B9E7064A21
:105190009342B5D1F2E70220B3E700BF40420F00CF
:1051A00014000020002301400020014090F83C3012
:1051B000012B1DD0012380F83C3003689A6822F04F
:1051C00001029A609A68D2070DD45A6822F0806270
:1051D00022F020025A60036C23F4885323F0010369
:1051E00043F001030364002380F83C301846704705
:1051F0000220704737B513460022019290F83C20F8
:10520000012A044665D00568012280F83C20AA687E
:10521000D20705D5AA68D00715D4002003B030BD49
:10522000AA6842F00102AA602B4A10682B4AB0FB20
:10523000F2F000EB40000190019A002AEAD0019AB6
:10524000013A0192F8E7206C20F4E06020F00100C0
:1052500040F4807020646A68520541BF206C20F4DD
:10526000405040F480502064226CA06B12F48052B5
:105270001CBF626C22F006026264002284F83C20AB
:10528000174AC263174A0264174AC2646FF02202C7
:105290002A606A6842F080626A60AA6842F480729A
:1052A000AA600A4605F14C0100F0A6FF0F4B5B68AF
:1052B00013F01F0F236808D1986810F04050ACD14C
:1052C0009A6842F080429A60A8E7094A9342A4D1C2
:1052D000F2E70220A2E700BF1400002040420F00C6
:1052E00057530008B9530008EF5400080023014049
:1052F0000020014090F83C30012B10B5044624D02A
:10530000012380F83C3003689A6822F001029A6019
:105310009A68D20717D49A68806B22F480729A60D8
:1053200000F0A8FF2268536823F080635360236C69
:1053300023F4885323F0010343F001032364002383
:1053400084F83C3010BD0020F9E70220FAE703683A
:10535000D86C70477047836B1A6C12F0500F10B501
:1053600024D11A6C42F400721A641A68916811F020
:10537000405F17D19969A9B9D16A11F4700F02D0B1
:10538000916849050ED4516821F0200151601A6CD2
:1053900022F480721A641A6CD2045EBF1A6C42F056
:1053A00001021A641846FFF7D5FF10BD9B6BBDE8DC
:1053B0001040DB6C1847704708B5806BFFF7FBFFA8
:1053C00008BD7047704738B5036819685A688D077B
:1053D00004462BD5900629D5226CD1065EBF226CDF
:1053E00042F4007222649A6812F0405F17D1A269F9
:1053F000AAB9DA6A12F4700F02D09A6852050ED474
:105400005A6822F020025A60236C23F480732364CC
:10541000236CDB045EBF236C43F00103236420464E
:10542000FFF798FF23686FF012021A60236819686B
:105430005A684D0732D5100630D5226CD1065EBFB2
:10544000226C42F4005222649A6812F4401F1ED16A
:105450009A6B12F4401F02D09A68520517D45A680A
:10546000550514D49A6812F0405F10D1A26972B940
:105470005A6822F080025A60236C23F4805323641C
:10548000236CD8055EBF236C43F0010323642046E0
:1054900000F060FB23686FF00C021A602368196843
:1054A0005A68C9070FD555060DD51B68D8070AD508
:1054B000236C43F4803323642046FFF782FF236884
:1054C0006FF001021A60236819685A6889060DD5C1
:1054D00052010BD5626C6FF0200542F0020262644B
:1054E00020461D60FFF76EFF23681D6038BD806B8E
:1054F00008B540230364436C43F004034364FFF79F
:1055000061FF08BDF7B50023019390F83C30012BF3
:1055100066D00D688E680123092D80F83C30ACB24E
:10552000036829D904EB4402DF681E3A4FF0070CE8
:105530000CFA02FC27EA0C07DF60DF6806FA02F2C9
:105540003A43DA604968062901EB810224D8596B95
:10555000053A1F26964021EA06015963596B04FA61
:1055600002F20A435A632C4A934231D0002380F856
:105570003C30184603B0F0BD1F6905EB45024FF003
:10558000070C0CFA02FC27EA0C071F611F6906FAD8
:1055900002F23A431A61D5E70C294FF01F010BD8EC
:1055A0001E6B233A914026EA01011963196B04FA34
:1055B00002F20A431A63D6E7DE6A413A914026EACC
:1055C0000101D962D96A04FA02F20A43DA62CAE72F
:1055D000122D07D1114A536843F480035360C5E785
:1055E0000220C7E70E4B9D4201D0112DBED10B49C1
:1055F0004A689D4242F400024A60B7D1094B0A4A08
:105600001B68B3FBF2F20A2353430193019B002B67
:10561000ACD0019B013BF8E7002001400023014092
:10562000120000101400002040420F0090F83C309F
:10563000012B10B527D0012380F83C300A6903689C
:10564000012A5A680CBF42F0400222F040025A6020
:105650005A680C6822F4400222F400725A605A68B8
:1056600022435A604A685A628A689A625A6822F0EB
:105670001F025A605C688A8922435A60002380F8BE
:105680003C30184610BD0220FCE7006C7047406CAF
:10569000704700BF806B40230364436C43F00403F6
:1056A0004364FFF78FBE806BFFF785BE836B1A6C78
:1056B00012F0500F23D11A6C42F400721A641A6867
:1056C000916811F0405F17D19969A9B9D16A11F4B5
:1056D000700F02D0916849050ED4516821F0200165
:1056E00051601A6C22F480721A641A6CD2045EBF84
:1056F0001A6C42F001021A641846FFF72BBE9B6B2E
:10570000DB6C184782B00023019390F83C30012BEA
:1057100047D0012380F83C3003689A68D10705D54B
:105720009A68D20714D4002002B070479A681E49C4
:1057300042F001029A601D4A1268B2FBF1F202EBDC
:1057400042020192019A002AEAD0019A013AF8E74E
:10575000026C22F4405222F0010242F480520264B0
:10576000026C12F4807208BF4264002280F83C2070
:105770006FF004021A600E4A526812F01F0F9A6806
:1057800058680AD112F4401FCDD110F48060CAD1FC
:105790009A6842F480029A60C6E706498B42C2D1F9
:1057A000F0E70220C0E700BF40420F0014000020D5
:1057B000002301400020014082B00023019390F8B3
:1057C0003C30012B4BD0012380F83C3003689A68B1
:1057D000D10705D59A68D20714D4002002B07047CB
:1057E0009A68204942F001029A601F4A1268B2FB8F
:1057F000F1F202EB42020192019A002AEAD0019AE8
:10580000013AF8E7026C22F4405222F0010242F41D
:1058100080520264026C12F4807208BF426400225B
:1058200080F83C206FF004021A605A6842F080024F
:105830005A600E4A526812F01F0F9A6858680AD1CF
:1058400012F4401FC9D110F48060C6D19A6842F4A6
:1058500080029A60C2E706498B42BED1F0E702207F
:10586000BCE700BF40420F001400002000230140AD
:105870000020014090F83C30012B024626D0012345
:1058800080F83C30036CDB0518D401684B6813F4D6
:10589000806313D1886820F001008860886810F068
:1058A000010011D1136C23F4885323F0010343F05A
:1058B00001031364002382F83C307047136C43F0FB
:1058C000200313640120F5E71846F3E70220704730
:1058D00070B504460D46FFF79DF9064623681A6821
:1058E00050070CD56FF00C021A60226C42F4005283
:1058F00022649A6812F4401F11D0002008E06A1C4C
:10590000EDD035B904232364002384F83C30032010
:1059100070BDFFF77FF9801BA842DFD9F2E79A6BD1
:1059200012F4401F02D09A685105E6D45A68520515
:10593000E3D49B6813F0405FDFD1A369002BDCD177
:10594000236C23F480532364206C10F48070D4D132
:10595000236C43F001032364DAE790F83C30012B19
:1059600002462AD0012380F83C30036CDB051CD4AE
:1059700001684B6813F4806317D1886820F0010038
:105980008860886810F0010015D14B6823F080030F
:105990004B60136C23F4885323F0010343F001039D
:1059A0001364002382F83C307047136C43F02003EB
:1059B00013640120F5E71846F3E70220704782B030
:1059C0000023019303686FF0040201391A60032970
:1059D00005D8DFE801F00B0907029B6C01930198E1
:1059E00002B070475B6CF9E71B6CF7E7DB6BF5E720
:1059F00037B513460022019290F83C20012A044654
:105A000062D00568012280F83C20AA68D20705D53B
:105A1000AA68D00715D4002003B030BDAA6842F0B0
:105A20000102AA60294A1068294AB0FBF2F000EB93
:105A300040000190019A002AEAD0019A013A0192AD
:105A4000F8E7206C20F4E06020F0010040F4807062
:105A500020646A68520541BF206C20F4405040F435
:105A600080502064226CA06B12F480521CBF626CC8
:105A700022F006026264002284F83C20154AC263C8
:105A8000154A0264154AC2646FF002022A606A680D
:105A900042F080626A60256B114A8DB1556845F409
:105AA000005555600A460F4900F0A6FB2368986828
:105AB00010F04050AFD19A6842F080429A60ABE754
:105AC000556825F40055ECE70220A5E714000020F6
:105AD00040420F00AD560008A75600089556000832
